{
    "_format": "hh-sol-artifact-1",
    "contractName": "WavePortal",
    "sourceName": "contracts/WavePortal.sol",
    "abi": [
        {
            "inputs": [],
            "stateMutability": "payable",
            "type": "constructor"
        },
        {
            "anonymous": false,
            "inputs": [
                {
                    "indexed": true,
                    "internalType": "address",
                    "name": "from",
                    "type": "address"
                },
                {
                    "indexed": false,
                    "internalType": "uint256",
                    "name": "timestamp",
                    "type": "uint256"
                },
                {
                    "indexed": false,
                    "internalType": "string",
                    "name": "message",
                    "type": "string"
                }
            ],
            "name": "NewWave",
            "type": "event"
        },
        {
            "inputs": [],
            "name": "getWaveCount",
            "outputs": [
                {
                    "internalType": "uint256",
                    "name": "",
                    "type": "uint256"
                }
            ],
            "stateMutability": "view",
            "type": "function"
        },
        {
            "inputs": [],
            "name": "getWaves",
            "outputs": [
                {
                    "components": [
                        {
                            "internalType": "address",
                            "name": "waver",
                            "type": "address"
                        },
                        {
                            "internalType": "string",
                            "name": "message",
                            "type": "string"
                        },
                        {
                            "internalType": "uint256",
                            "name": "timestamp",
                            "type": "uint256"
                        }
                    ],
                    "internalType": "struct WavePortal.Wave[]",
                    "name": "",
                    "type": "tuple[]"
                }
            ],
            "stateMutability": "view",
            "type": "function"
        },
        {
            "inputs": [
                {
                    "internalType": "address",
                    "name": "",
                    "type": "address"
                }
            ],
            "name": "lastWavedAt",
            "outputs": [
                {
                    "internalType": "uint256",
                    "name": "",
                    "type": "uint256"
                }
            ],
            "stateMutability": "view",
            "type": "function"
        },
        {
            "inputs": [
                {
                    "internalType": "string",
                    "name": "_message",
                    "type": "string"
                }
            ],
            "name": "wave",
            "outputs": [],
            "stateMutability": "nonpayable",
            "type": "function"
        }
    ],
    "bytecode": "0x60806040526200004f6040518060400160405280601a81526020017f546869732062652074686520636f6e7374727563746f722e2e2e0000000000008152506200007760201b620006491760201c565b606444426200005f9190620001c4565b6200006b919062000261565b60008190555062000308565b62000117816040516024016200008e919062000184565b6040516020818303038152906040527f41304fac000000000000000000000000000000000000000000000000000000007bffffffffffffffffffffffffffffffffffffffffffffffffffffffff19166020820180517bffffffffffffffffffffffffffffffffffffffffffffffffffffffff83818316178352505050506200011a60201b60201c565b50565b60008151905060006a636f6e736f6c652e6c6f679050602083016000808483855afa5050505050565b60006200015082620001a8565b6200015c8185620001b3565b93506200016e8185602086016200022b565b6200017981620002f7565b840191505092915050565b60006020820190508181036000830152620001a0818462000143565b905092915050565b600081519050919050565b600082825260208201905092915050565b6000620001d18262000221565b9150620001de8362000221565b9250827fffffffffffffffffffffffffffffffffffffffffffffffffffffffffffffffff0382111562000216576200021562000299565b5b828201905092915050565b6000819050919050565b60005b838110156200024b5780820151818401526020810190506200022e565b838111156200025b576000848401525b50505050565b60006200026e8262000221565b91506200027b8362000221565b9250826200028e576200028d620002c8565b5b828206905092915050565b7f4e487b7100000000000000000000000000000000000000000000000000000000600052601160045260246000fd5b7f4e487b7100000000000000000000000000000000000000000000000000000000600052601260045260246000fd5b6000601f19601f8301169050919050565b61121580620003186000396000f3fe608060405234801561001057600080fd5b506004361061004c5760003560e01c80631517c56114610051578063449d46c01461006f578063a42a46631461008b578063a9d42f7e146100bb575b600080fd5b6100596100d9565b6040516100669190610ddd565b60405180910390f35b61008960048036038101906100849190610a2b565b6100e3565b005b6100a560048036038101906100a09190610a02565b6104e0565b6040516100b29190610ddd565b60405180910390f35b6100c36104f8565b6040516100d09190610c94565b60405180910390f35b6000600154905090565b42610384600360003373ffffffffffffffffffffffffffffffffffffffff1673ffffffffffffffffffffffffffffffffffffffff168152602001908152602001600020546101319190610eef565b1115610172576040517f08c379a000000000000000000000000000000000000000000000000000000000815260040161016990610dbd565b60405180910390fd5b42600360003373ffffffffffffffffffffffffffffffffffffffff1673ffffffffffffffffffffffffffffffffffffffff1681526020019081526020016000208190555060018060008282546101c89190610eef565b9250508190555061020f6040518060400160405280601881526020017f25732077617665642077697468206d657373616765202573000000000000000081525033836106e2565b600260405180606001604052803373ffffffffffffffffffffffffffffffffffffffff16815260200183815260200142815250908060018154018082558091505060019003906000526020600020906003020160009091909190915060008201518160000160006101000a81548173ffffffffffffffffffffffffffffffffffffffff021916908373ffffffffffffffffffffffffffffffffffffffff16021790555060208201518160010190805190602001906102ce9291906108e2565b50604082015181600201555050606460005442446102ec9190610eef565b6102f69190610eef565b6103009190611026565b6000819055506103476040518060400160405280601b81526020017f52616e646f6d206e756d6265722067656e6572617465643a2025640000000000815250600054610781565b60326000541161048d576103906040518060400160405280600781526020017f257320776f6e21000000000000000000000000000000000000000000000000008152503361081d565b6000655af3107a40009050478111156103de576040517f08c379a00000000000000000000000000000000000000000000000000000000081526004016103d590610d7d565b60405180910390fd5b60003373ffffffffffffffffffffffffffffffffffffffff168260405161040490610c7f565b60006040518083038185875af1925050503d8060008114610441576040519150601f19603f3d011682016040523d82523d6000602084013e610446565b606091505b505090508061048a576040517f08c379a000000000000000000000000000000000000000000000000000000000815260040161048190610d9d565b60405180910390fd5b50505b3373ffffffffffffffffffffffffffffffffffffffff167f5f7e16dc676677766a70e9c5628aa6c54ddb8b6e5188e2ae1e1f17f1ffbea71642836040516104d5929190610df8565b60405180910390a250565b60036020528060005260406000206000915090505481565b60606002805480602002602001604051908101604052809291908181526020016000905b8282101561064057838290600052602060002090600302016040518060600160405290816000820160009054906101000a900473ffffffffffffffffffffffffffffffffffffffff1673ffffffffffffffffffffffffffffffffffffffff1673ffffffffffffffffffffffffffffffffffffffff1681526020016001820180546105a590610fc3565b80601f01602080910402602001604051908101604052809291908181526020018280546105d190610fc3565b801561061e5780601f106105f35761010080835404028352916020019161061e565b820191906000526020600020905b81548152906001019060200180831161060157829003601f168201915b505050505081526020016002820154815250508152602001906001019061051c565b50505050905090565b6106df8160405160240161065d9190610cb6565b6040516020818303038152906040527f41304fac000000000000000000000000000000000000000000000000000000007bffffffffffffffffffffffffffffffffffffffffffffffffffffffff19166020820180517bffffffffffffffffffffffffffffffffffffffffffffffffffffffff83818316178352505050506108b9565b50565b61077c8383836040516024016106fa93929190610d08565b6040516020818303038152906040527fe0e9ad4f000000000000000000000000000000000000000000000000000000007bffffffffffffffffffffffffffffffffffffffffffffffffffffffff19166020820180517bffffffffffffffffffffffffffffffffffffffffffffffffffffffff83818316178352505050506108b9565b505050565b6108198282604051602401610797929190610d4d565b6040516020818303038152906040527f9710a9d0000000000000000000000000000000000000000000000000000000007bffffffffffffffffffffffffffffffffffffffffffffffffffffffff19166020820180517bffffffffffffffffffffffffffffffffffffffffffffffffffffffff83818316178352505050506108b9565b5050565b6108b58282604051602401610833929190610cd8565b6040516020818303038152906040527f319af333000000000000000000000000000000000000000000000000000000007bffffffffffffffffffffffffffffffffffffffffffffffffffffffff19166020820180517bffffffffffffffffffffffffffffffffffffffffffffffffffffffff83818316178352505050506108b9565b5050565b60008151905060006a636f6e736f6c652e6c6f679050602083016000808483855afa5050505050565b8280546108ee90610fc3565b90600052602060002090601f0160209004810192826109105760008555610957565b82601f1061092957805160ff1916838001178555610957565b82800160010185558215610957579182015b8281111561095657825182559160200191906001019061093b565b5b5090506109649190610968565b5090565b5b80821115610981576000816000905550600101610969565b5090565b600061099861099384610e4d565b610e28565b9050828152602081018484840111156109b057600080fd5b6109bb848285610f81565b509392505050565b6000813590506109d2816111c8565b92915050565b600082601f8301126109e957600080fd5b81356109f9848260208601610985565b91505092915050565b600060208284031215610a1457600080fd5b6000610a22848285016109c3565b91505092915050565b600060208284031215610a3d57600080fd5b600082013567ffffffffffffffff811115610a5757600080fd5b610a63848285016109d8565b91505092915050565b6000610a788383610c11565b905092915050565b610a8981610f45565b82525050565b610a9881610f45565b82525050565b6000610aa982610e8e565b610ab38185610eb1565b935083602082028501610ac585610e7e565b8060005b85811015610b015784840389528151610ae28582610a6c565b9450610aed83610ea4565b925060208a01995050600181019050610ac9565b50829750879550505050505092915050565b6000610b1e82610e99565b610b288185610ecd565b9350610b38818560208601610f90565b610b4181611113565b840191505092915050565b6000610b5782610e99565b610b618185610ede565b9350610b71818560208601610f90565b610b7a81611113565b840191505092915050565b6000610b92602f83610ede565b9150610b9d82611124565b604082019050919050565b6000610bb5600083610ec2565b9150610bc082611173565b600082019050919050565b6000610bd8601e83610ede565b9150610be382611176565b602082019050919050565b6000610bfb600883610ede565b9150610c068261119f565b602082019050919050565b6000606083016000830151610c296000860182610a80565b5060208301518482036020860152610c418282610b13565b9150506040830151610c566040860182610c61565b508091505092915050565b610c6a81610f77565b82525050565b610c7981610f77565b82525050565b6000610c8a82610ba8565b9150819050919050565b60006020820190508181036000830152610cae8184610a9e565b905092915050565b60006020820190508181036000830152610cd08184610b4c565b905092915050565b60006040820190508181036000830152610cf28185610b4c565b9050610d016020830184610a8f565b9392505050565b60006060820190508181036000830152610d228186610b4c565b9050610d316020830185610a8f565b8181036040830152610d438184610b4c565b9050949350505050565b60006040820190508181036000830152610d678185610b4c565b9050610d766020830184610c70565b9392505050565b60006020820190508181036000830152610d9681610b85565b9050919050565b60006020820190508181036000830152610db681610bcb565b9050919050565b60006020820190508181036000830152610dd681610bee565b9050919050565b6000602082019050610df26000830184610c70565b92915050565b6000604082019050610e0d6000830185610c70565b8181036020830152610e1f8184610b4c565b90509392505050565b6000610e32610e43565b9050610e3e8282610ff5565b919050565b6000604051905090565b600067ffffffffffffffff821115610e6857610e676110e4565b5b610e7182611113565b9050602081019050919050565b6000819050602082019050919050565b600081519050919050565b600081519050919050565b6000602082019050919050565b600082825260208201905092915050565b600081905092915050565b600082825260208201905092915050565b600082825260208201905092915050565b6000610efa82610f77565b9150610f0583610f77565b9250827fffffffffffffffffffffffffffffffffffffffffffffffffffffffffffffffff03821115610f3a57610f39611057565b5b828201905092915050565b6000610f5082610f57565b9050919050565b600073ffffffffffffffffffffffffffffffffffffffff82169050919050565b6000819050919050565b82818337600083830152505050565b60005b83811015610fae578082015181840152602081019050610f93565b83811115610fbd576000848401525b50505050565b60006002820490506001821680610fdb57607f821691505b60208210811415610fef57610fee6110b5565b5b50919050565b610ffe82611113565b810181811067ffffffffffffffff8211171561101d5761101c6110e4565b5b80604052505050565b600061103182610f77565b915061103c83610f77565b92508261104c5761104b611086565b5b828206905092915050565b7f4e487b7100000000000000000000000000000000000000000000000000000000600052601160045260246000fd5b7f4e487b7100000000000000000000000000000000000000000000000000000000600052601260045260246000fd5b7f4e487b7100000000000000000000000000000000000000000000000000000000600052602260045260246000fd5b7f4e487b7100000000000000000000000000000000000000000000000000000000600052604160045260246000fd5b6000601f19601f8301169050919050565b7f54686520636f6e74726163742061696e277420676f742074686174206b696e6460008201527f206f66206d6f6e65792064756465210000000000000000000000000000000000602082015250565b50565b7f4661696c656420746f2073656e64206d6f6e657920746f2077617665722e0000600082015250565b7f576169742031356d000000000000000000000000000000000000000000000000600082015250565b6111d181610f45565b81146111dc57600080fd5b5056fea264697066735822122018b90682b4500570e659ccc716cd2687a64b9ef6f9cab1a64b7d641ccf915e9964736f6c63430008040033",
    "linkReferences": {},
    "deployedLinkReferences": {}
}